:020000040800F2
:1000000000000220ED02000831030008310300085F
:10001000310300083103000831030008000000002C
:100020000000000000000000000000003103000894
:10003000310300080000000031030008310300080C
:1000400031030008310300083103000831030008C0
:1000500031030008310300083103000831030008B0
:1000600031030008310300083103000831030008A0
:100070003103000831030008310300083103000890
:100080003103000831030008310300083103000880
:100090003103000831030008310300083103000870
:1000A0003103000831030008310300083103000860
:1000B0003103000831030008310300083103000850
:1000C0003103000831030008310300083103000840
:1000D0003103000831030008310300083103000830
:1000E0003103000831030008310300083103000820
:1000F0003103000831030008310300083103000810
:1001000031030008310300083103000831030008FF
:1001100031030008310300083103000831030008EF
:1001200031030008310300083103000831030008DF
:1001300031030008310300083103000831030008CF
:1001400031030008310300083103000831030008BF
:1001500031030008310300083103000831030008AF
:10016000310300083103000831030008310300089F
:10017000310300083103000831030008310300088F
:080180003103000831030008FF
:10018800364AD2F8883043F47003C2F88830344BCA
:100198001A68002142F001021A6099601A6822F078
:1001A800847222F480321A602E4A5A601A6882B029
:1001B80022F480221A60D960009101911A6842F4F1
:1001C80080321A601A6802F400320192009A0132F1
:1001D8000092019A1AB9009AB2F5A04FF2D11B68A1
:1001E80013F4003318BF01230193019B012B2ED177
:1001F8001B4B1D491A6C42F080521A640A6842F47B
:1002080040420A609A689A609A6842F400429A608A
:100218009A6842F4A0529A60144A5A601A6842F0E6
:1002280080721A601A689201FCD5114A40F2057171
:1002380011609A6822F003029A609A6842F00202FA
:100248009A60074A936803F00C03082BFAD1034B12
:100258004FF000629A6002B0704700BF00ED00E006
:100268000038024010300024007000401954400744
:10027800003C0240174A1849936803F00C03042B0A
:100288000DD0082B0DD0154B0B60124B9B68C3F398
:1002980003130B441A790B68D3400B607047104B5B
:1002A800F2E75368506813F4800F00F03F0053687A
:1002B80014BF0B4A094AB2FBF0F0064A5268C2F36F
:1002C8000142C3F38813013243435200B3FBF2F3F4
:1002D800DAE700BF00380240000000200024F400E4
:1002E80000127A00002103E00A4B5B5843500431A6
:1002F80009480A4B42189A42F6D3094A02E00023F9
:1003080042F8043B074B9A42F9D3FFF739FF00F054
:100318000CF8704738030008000000201400002083
:100328001400002014000020FEE7002070470000A1
:10033800007A030A00000000000000000102030424
:040348000607080993
:04000005080002ED00
:00000001FF
